:020000040800F2
:100000000000082051050008852300088923000806
:100010008D230008912300089523000800000000AC
:1000200000000000000000000000000071610008F6
:1000300099230008000000001162000875620008A2
:10004000A1050008A1050008A1050008A1050008F8
:10005000A1050008A1050008A1050008A1050008E8
:10006000A1050008A1050008A1050008A1050008D8
:10007000A10500089D230008A1050008A1050008AE
:10008000A1050008A1050008A1050008A1050008B8
:10009000A1050008A1050008A1050008A1050008A8
:1000A000A1050008A1050008A1050008A105000898
:1000B000A1050008A1050008A9230008A105000862
:1000C000A1050008A1050008A1050008A105000878
:1000D000A1050008A1050008A1050008A105000868
:1000E000A1050008A1050008A1050008A105000858
:1000F000A1050008A1050008A1050008A105000848
:10010000A1050008A1050008A1050008A105000837
:10011000A1050008A1050008A1050008A105000827
:10012000B5230008C1230008CD230008A10500085D
:10013000A1050008A1050008A1050008A105000807
:10014000A1050008A1050008A1050008A1050008F7
:10015000A1050008A1050008A1050008A1050008E7
:10016000A1050008A1050008A1050008A1050008D7
:10017000A1050008A1050008A10500080000000075
:10018000A1050008A1050008A1050008A1050008B7
:10019000A1050008A1050008A1050008A1050008A7
:1001A0000000000000000000A1050008A1050008F3
:1001B000A1050008A1050008A1050008A105000887
:1001C000A1050008A105000800000000A105000825
:1001D000A1050008A1050008A1050008A105000867
:1001E000A1050008A1050008A1050008A105000857
:0801F00000000000A105000859
:1002000010B5054C237833B9044B13B10448AFF350
:1002100000800123237010BD280000200000000092
:10022000C083000808B5034B1BB103490348AFF373
:10023000008008BD000000002C000020C0830008E2
:1002400053B94AB9002908BF00281CBF4FF0FF313D
:100250004FF0FF3000F07AB9ADF1080C6DE904CE33
:1002600000F006F8DDF804E0DDE9022304B0704791
:100270002DE9F0478C460D460446089E002B51D1CF
:100280008A4217466DD9B2FA82FEBEF1000F0BD03A
:10029000CEF1200C01FA0EF520FA0CFC02FA0EF752
:1002A0004CEA050C00FA0EF44FEA174A250CBCFB89
:1002B000FAF81FFA87F90AFB18CC45EA0C4508FB47
:1002C00009F3AB420AD9ED1908F1FF3280F023811E
:1002D000AB4240F22081A8F102083D44ED1AA4B2DD
:1002E000B5FBFAF00AFB105544EA054400FB09F996
:1002F000A14509D9E41900F1FF3380F00A81A14535
:1003000040F2078102383C44A4EB090440EA08406B
:100310000021002E61D024FA0EF4002334607360B3
:10032000BDE8F0878B4207D9002E54D0002186E823
:1003300021000846BDE8F087B3FA83F1002940F0B8
:100340008E80AB4202D3824200F2FA80841A65EBBF
:1003500003050120AC46002E3FD086E81010BDE812
:10036000F08712B90127B7FBF2F7B7FA87FEBEF1A3
:10037000000F34D1EB1B3A0C1FFA87FC0121B3FBB1
:10038000F2F8250C02FB183345EA03450CFB08F391
:10039000AB4207D9ED1908F1FF3002D2AB4200F2AF
:1003A000D1808046ED1AA3B2B5FBF2F002FB1055E6
:1003B00043EA05440CFB00FCA44507D9E41900F10D
:1003C000FF3302D2A44500F2B8801846A4EB0C0417
:1003D00040EA08409DE731463046BDE8F087CEF15F
:1003E000200405FA0EF307FA0EF720FA04F83A0C87
:1003F00025FA04F448EA0308B4FBF2F14FEA184581
:1004000002FB11441FFA87FC45EA044501FB0CF38B
:10041000AB4200FA0EF409D9ED1901F1FF3080F07A
:100420008A80AB4240F2878002393D44EB1A1FFAC2
:1004300088F5B3FBF2F002FB103345EA034500FBFD
:100440000CF3AB4207D9ED1900F1FF386FD2AB4284
:100450006DD902383D44EB1A40EA01418FE7C1F102
:10046000200722FA07F88B4005FA01F448EA030353
:1004700020FA07FE4FEA134CFD404EEA040EB5FB8E
:10048000FCF94FEA1E440CFB19551FFA83F844EAA5
:10049000054509FB08F4AC4202FA01F200FA01FA40
:1004A00008D9ED1809F1FF3043D2AC4241D9A9F186
:1004B00002091D442D1B1FFA8EFEB5FBFCF00CFB40
:1004C00010554EEA054400FB08F8A04507D9E4188A
:1004D00000F1FF3529D2A04527D902381C4440EA53
:1004E0000940A4EB0804A0FB02894C45C6464D46D2
:1004F00015D312D056B1BAEB0E0364EB050404FA1F
:1005000007F7CB401F43CC40376074600021BDE843
:10051000F0871846F8E69046E0E6C245EAD2B8EB26
:10052000020E69EB03050138E4E72846D7E74046A9
:1005300091E78146BEE7014678E702383C4445E74B
:10054000084608E7A8F102083D442BE7704700BFC2
:10055000DFF834D0002103E00C4B5B5843500431EA
:100560000B480C4B42189A42F6D30B4A02E0002388
:1005700042F8043B094B9A42F9D302F043FB07F0DF
:10058000E9F801F0C3FD704700000820408700082B
:10059000000000202800002028000020B44800208F
:1005A000FEE7000000000000F0B52DED108BDFED40
:1005B000D8AA93B0D74CB0EE6AAAD74DB0EE6ABABB
:1005C000F0EE6ABA9FEDC49B9FEDC58B002302221B
:1005D00007A9206806F0DEF9012840F07181DDED01
:1005E000077A03469DED087A0022B8EEE7FADFEDC0
:1005F000CB7AF8EEC7FA0CA928682FEE27FA6FEE2F
:10060000A7FA06F0C7F9012840F06181BDF838303B
:10061000B7EE084A9DF92C20A3F5FA732FEE04DA01
:10062000134406EE103A9FEDB07BB8EEC66B26EE93
:10063000076BB7EEC66BB7EEC6EAB0EE4E0B07F02F
:10064000C3F8B7EECF7AB7EEEF5AB0EE40CBB0EECC
:100650004E0B9FEDA76B27EE06FB9FEDA77BA5EE4C
:1006600007FB07F0EDF89DF84630BDF92A2005EEAE
:10067000103ABDF94430B7EECD3AB1EE4D4A002BF9
:10068000B8EEC55BB8BF5B42B7EEC44AB7EECFFB6E
:10069000B7EECFFA2FEE006B2CEE0F7BA3EE0C6BB8
:1006A000A0EE047B9FED963BB7EEC66B06EE903A4C
:1006B00025EE035BB8EEE64BB1EE463AB7EEC77BEC
:1006C000B4EEC54BF1EE10FA00F3FE8007EE902A6F
:1006D000F8EEE73A73EEC73AFDEEC77ABDF910308F
:1006E00033EE4B7ABDF91210DFED8D4A17EE902AEA
:1006F000FDEEC67A03FA82F217EE903A002A01FA6A
:1007000083F3B8BF0132002B4FEA6202B8BF013356
:10071000ADF810209DF828205B1006EE902A9DF879
:100720002920ADF8123006EE102AF8EEE66AB8EE8F
:10073000C66A27EE267A23EE065AB7EEC77AB7EED8
:10074000C55AA5EE097BB7EEC77B37EE0A7AB4EE41
:10075000647AF1EE10FA24DDDFED727AB4EE677A96
:10076000F1EE10FA1DD533EEEB5A23EE866A25EE34
:10077000265AB7EEC66AB7EEC55AA6EE095BB7EEC3
:10078000C55B35EE2A5AB4EE645AF1EE10FA08DD74
:10079000B4EE675AF1EE10FA03D5F0EE45AAB0EECA
:1007A00047AAB7EEEA5A9FED607AB7EECA4ADFED84
:1007B0005F7ADFED5F1A25EE406B2CEE055BACEE49
:1007C000046BA0EE045B9FED504BB7EEC66B26EEBC
:1007D000477AB7EEC55B26EE276AB7EEC77AB7EE63
:1007E000C52AB7EEC66AB0EE475BA2EE447BA2EE26
:1007F000045B26EE086BB7EEC77BB7EEC55BB7EEC2
:10080000C77AB7EEC66BB7EEC55A27EE087B25EE62
:10081000085BB7EEC77BB7EEC55BC5FE077AC7FEC0
:10082000867A37EE677A36EE676A35EE675AC6FE25
:10083000457AC7FE677AF4EEE17AF1EE10FA07D551
:10084000C1EEA76A26EE266A25EE265A27EE267AFC
:10085000B1EE466A374AB1EE455A374BB1EE477AA8
:10086000D2F800C0FCEEC67A04A918680022022360
:10087000B0EE43BACDED017AFCEEC57ABDF804E0E6
:10088000F0EE63BACDED027AFCEEC77ABDF80870DF
:10089000CCF834E0CDED037ABDF80C60CCF83870BC
:1008A000CCF83C60ADF814E0ADF81670ADF8186007
:1008B00005F066FE4FF48051204802F027FF85E6E0
:1008C000012005F0A5FA81E6F1EE473A04E713B0FE
:1008D000BDEC108BF0BD00BF9A9999999999B93FD9
:1008E000FCA9F1D24D62503F4D463AA869BC793F10
:1008F000C710001C7BB6EB3FC710001C7BB6FB3F4C
:100900006666666666664F40495B2023A779E23FCC
:100910000000000074400020644000206F12833A01
:100920000024F4C90024F449ABAAAA3EABAA2A3F8A
:10093000000007C5B04100204C40002000080240E4
:1009400001F050BC00000000C14A036812689342E5
:100950002DE9F04F2DED048B85B000F08B80BD4A62
:100960001268934204D005B0BDEC048BBDE8F08F53
:10097000B9490023B94CB1F90C2094F80CC001928C
:1009800094F80DE0B4F90E6094F9107091F81680A7
:1009900091F80AA091F80B90B14A02E00133072BBD
:1009A00051D0D05CF828F9D1062B00F078820133C1
:1009B0005FFA83FBBBF1060F00F0ED800BF1010045
:1009C000C0B212F80B502D06E9D5155C15F0600F7A
:1009D000E5D012F80BC0062812F800E00CF07F0CEE
:1009E0000EF01F0E00F0E480451CEDB2062D00F065
:1009F000EC800230C0B20746D65D12F805803602A0
:100A0000D55D06F4FE462D0646EA080600F1D480C0
:100A1000062800F0C580451CEDB2575D12F8058030
:100A200007F07F0718F0800F40F0D280062D00F00D
:100A3000CA800230C0B212F80080F1460196E24648
:100A40005FFA88F8ABE7BDF80430824884F80CC040
:100A500084F80DE0E681277481F8168081F80AA0F9
:100A600081F80B908B8104F087FD05B0BDEC048B01
:100A7000BDE8F08F9FED729B9FED738B01250024E5
:100A8000DFF81082DFF8D09118F80430F82B14D07A
:100A900001340135052CF7D16D4804F06DFD714B23
:100AA0001B68002B3FF45FAF6F4B4FF080521A6012
:100AB000BFF34F8FBFF36F8F55E7042C00F0F38126
:100AC000042DEBB269D05A1CD2B218F803100E06EE
:100AD000DED518F8021011F0600FD9D018F80370A5
:100AE000042A18F8036018F80310C7F3801718F8E1
:100AF0000300C6F34016C1F3820318F8021000F099
:100B0000030089F8007001F01F0189F8016089F87D
:100B1000023089F8030089F8041000F08D80561C1B
:100B2000F6B2042E00F09D81931CDBB218F806206B
:100B3000022818F8033089F8052089F8063072D0A9
:100B4000032800F08481494803889BB2CB1A102BFC
:100B500040F36D81B9F808308EB2203B23F01F03BB
:100B60000B439BB2A9F80830414A0680117849B27C
:100B7000481E002940B2107040F3908000213D488B
:100B800002F0AAFA38B33C480223364A49460068C4
:100B900005F090FE7CE7002013E72B46002294E747
:100BA0001778107807F07F07000608D4012042E785
:100BB0000127002538461FE7764236B228E77F42F4
:100BC00001207FB237E7002035E70027384613E7DA
:100BD0007F427FB22AE70146284802F07DFA0646A6
:100BE0000028D0D11D4F2649224802F06BFA254932
:100BF0007860224802F066FA796842F29812DFF8CB
:100C000098E03346204E8E44121A20490644A2EB47
:100C10000E02C7F804E008683946BA60114A3E601F
:100C200005F048FEAFE78EB2194A01210F48A9F836
:100C300008603346117097E70123002676E700BF6E
:100C40000000000080842E41F06B2409C215A03FF3
:100C50004044002060430020000000205800002095
:100C60006C3E0020E800002004ED00E04E00002073
:100C700018000020743E002064400020C03F002087
:100C800014400020C83E002068DEFFFF74400020B2
:100C90004C000020643E002020B8FFFF83498448B8
:100CA0000F68006887427FF469AF8248804E006811
:100CB000DFF814E2406A086008683768C01BCEF8A5
:100CC0000000DEF800000028C0F2D980DEF8000045
:100CD000CEF80000DEF80000B0F5C37F40F3CC8012
:100CE000DEF80000DFF8E4C1B0F5C87F80F2928042
:100CF000BCF80000181A00B2ADF80A00BDF80A00EE
:100D000000B2B0F57A7F40F3C680BCF80000C0F5B1
:100D100078403030184400B2ADF80A00BDF80A003F
:100D200000B210F57A7F80F2B280BCF80000C0F506
:100D3000FA60184400B2ADF80A000C27BDF80AB0FA
:100D4000DEF800005C4E0FFA8BFB0190BDF80A0044
:100D50009EED005A0FFA80FA5848B8EEC55B07EED0
:100D600010AA96F800A00026B8EEC77B07FB0AF78A
:100D70000396BAF1080F40F807B0074427EE097B45
:100D8000019EDDF80CB07E6087EE056BBDEEC66B94
:100D900087ED026A876846695F440397039F37447B
:100DA000066A0397039F3744C66A0397039F374435
:100DB000866B0397039F3744466C0397039F374422
:100DC000066D0397039F37440397039FC66DD0F8C2
:100DD00068B03744406F4FF00A060397039F5F44A3
:100DE0000397039F38440390039890FBF6F0039019
:100DF0009DED037AB8EEC77B27EE087BFDEEC77B3F
:100E000017EE900AA9F814003FDC0AF10100C0B205
:100E1000294E307008681BB2254E33213060ACF883
:100E20000030DEF800301170C9F81030A6E60388F3
:100E30008EB29BB2CB1A1033B9F80830B8BF20334A
:100E400023F01F030B439BB2A9F808308CE68EB247
:100E50001B4A06F5F8631178A9F8083019B9194842
:100E600082E6002362E6B9F80E100020013110700E
:100E70001448A9F80E1077E6DFF850C0CAE7DEF88C
:100E800000704CF25030384422E70020C0E7BDF833
:100E90000A0000B24FE7BDF80A0000B23CE74FF08D
:100EA000000B07238AE500230DE600BF4400002065
:100EB0005400002070410020E40000206C0000205D
:100EC0004C0000204E000020480000205000002070
:100ED000054C08B52046042102F018FC4FF4FA70C6
:100EE00004F096FFF6E700BF00100240054C08B57D
:100EF0002046082102F00AFC4FF47A7004F088FFC3
:100F0000F6E700BF0010024008B5322004F080FF71
:100F1000FBE700BF80B5B4B0C822002140F2F5372E
:100F200002A840F2F73606F044FC40F2DD7140F2D0
:100F3000DF724FF47A604FF4FA5340F2DC7EADF882
:100F4000087040F2F338ADF8167040F2DB7CADF873
:100F500036704FF47D77ADF80A10ADF81810ADF883
:100F60002810ADF83010ADF8381040F2E571ADF84A
:100F70000C20ADF81220ADF82E20ADF83A20ADF8D7
:100F8000402040F2FD32ADF81060ADF82C60ADF8B5
:100F90003E604FF47A76ADF81400ADF82200ADF85B
:100FA000420040F2E670ADF80E30ADF81C30ADF8FE
:100FB0002A30ADF83C30ADF81AE0ADF826E040F24A
:100FC000FF3EADF82470ADF8327040F2E777ADF82F
:100FD00034604FF4FA66ADF84420ADF84610ADF831
:100FE0001E80ADF820C0ADF84800ADF84A3040F2A0
:100FF000FE33ADF854004FF47E70ADF856104FF448
:101000007B61ADF85E20ADF8602000221F4C204DC2
:10101000ADF84CE0ADF84E70ADF85060ADF8523020
:10102000ADF85830ADF85A00ADF85C10ADF80620B8
:1010300002E00A2004F0ECFE002320681A4619465C
:1010400005F0A8FC0128F4D1BDF80610002302AE7B
:10105000286889B21A4606EB410105F091FA012889
:1010600006D0002320681A46194605F089FAE0E701
:10107000BDF806309BB2312B06D0BDF806300133E7
:101080009BB2ADF80630ECE70023FAE760400020A1
:1010900054400020000000002DE9F0475C4D4FF067
:1010A000000A5C4C5C4FDFF88081DFF880912DED09
:1010B000048B90B09FED599A0FCD09AE0DF1100E33
:1010C000CDF808A0CDF80CA00FC695E807000C35A8
:1010D00086E807000FCDD5F800C0514E514DAEE85F
:1010E0000F009FED498BCEF800C003E02B68002273
:1010F0005A635A6300230A220DF10601206805F0A5
:1011000049FC0128F2D1002302463068194605F057
:1011100041FCBDF806104FF47A72A7FB01039B094E
:1011200007EE903A02FB1312F8EEE77A92B2CDED99
:10113000037AC2B3A8FB01036420A8FB02E25B09A7
:10114000520900FB13139BB2A9FB03034FEAD3031D
:1011500040D007EE903A10ABF8EEE77A03EB82024C
:1011600012ED0D7A77EEA77A67EE877ACDED027AE7
:101170009DED026A00222B68B7EEC66A88EE067BF8
:10118000BCEEC77B83ED0B7A5A63DDED037AF5EE97
:10119000407AF1EE10FA12D1002330681A4619464F
:1011A00005F0EEF9A6E72B685A635A63CDF808A05C
:1011B000DDED037AF5EE407AF1EE10FAECD09DED1C
:1011C000037AC9EE077AFCEEE77A17EE900A04F08C
:1011D0001FFEE1E7A9FB010207EE903AD30810AA2F
:1011E000F8EEE77A03EB8303A1EB43039BB202EB38
:1011F000830313ED087A67EE877A77EEA77ACDED51
:10120000027AB5E7AFF300800000000080842E4131
:10121000D883000854400020D34D62100000FA43E8
:1012200060400020F04100201F85EB51CDCCCCCC9C
:1012300010B50021184C194803F0F0FC184803F0D1
:1012400029FC2046002103F0E9FC2046002103F0A0
:1012500057FF2046042103F0E1FC2046042103F05F
:101260004FFF2046082103F0D9FC2046082103F057
:1012700047FF05220B490C4804F036F907220B49B9
:101280000B4804F031F90B4801F0E2FE0A48BDE8D2
:10129000104001F0DDBE00BFB0410020F041002051
:1012A00070410020643E0020404400206C3E00203D
:1012B00060430020743E0020C03F00202DE9F04F25
:1012C000DFF808A0A3B0DFF808B028E0D34D621023
:1012D0001F85EB51302233462F21104622AC0A25C0
:1012E0000D26234421442044092403F8504C0024B3
:1012F00001F8506C322300F8505C0EA9EB4805460B
:1013000080F8684004F070F895F86830012B00F020
:101310001483012385F86830642004F079FDE448E3
:101320000123002208A9006805F034FB0128F3D14D
:101330000C9A64259DF822404FF47A76D1178AFBE7
:1013400002308BFB02733034C1EBA010BDF934C006
:10135000C1EB63138DF83A4006FB1020482405FBCF
:101360001323D44D8DF83840C41785FB0265BCF1BA
:10137000000FC1EBA5018BFB0050CE4D01EB8101AD
:1013800085FB0365C4EB60104FEAE3734FF03A044A
:10139000A2EB410200F13000C3EBA5034FF00901BD
:1013A00002F130024FF0560503F130038DF83E0094
:1013B0004FF077008DF840208DF83F308DF83940A0
:1013C0008DF83D408DF843408DF83B108DF841106D
:1013D0008DF83C508DF84200C0F2A7822B22BDF858
:1013E00028804FEAEC778AFB0C304FF47A73AAFB23
:1013F00008146421C7EBA010ABFB085EA4098DF8AC
:10140000442003FB10C04FEA5E1E03FB1489AA4B65
:101410008BFB0C52A94E83FB0C533034C7EB62128A
:1014200001FB1E8EC7EB23338DF84C4001FB12C22B
:1014300042F210711FFA8EFEA04C01FB13C31FFA7B
:1014400089F9A6FB0E6E9B4E1BB2ABFB09594FEA06
:10145000DE0E9DF82B5001934FEA591986FB0C368E
:101460009DF82A10A4FB083409F13009C7EBA60740
:101470000EF1300EE4088DF84D9007EB87078F4E84
:1014800000B28DF84EE004EB84098C4CACEB4707BE
:101490008BFB003EA6FB013612B2A4FB05343037AD
:1014A000844BC0178DF84870F60883FB023C019FFF
:1014B000D2178AFB0737C0EB6E10019BC2EBAC0260
:1014C000E40830303032DB178DF8460006F130008A
:1014D000C3EBA7138DF8472006EB86068DF8530063
:1014E00004EB84023033A1EB46013034A5EB420219
:1014F0008DF845303031BDF92C303032A8EB490839
:1015000009263A258DF8541008F130088DF8592035
:1015100045274FF0500E492054215122002B8DF8C1
:101520004F808DF858408DF849608DF850608DF8E7
:1015300055608DF85A608DF84A708DF84B508DF8D3
:1015400052508DF857508DF85D508DF851E08DF860
:1015500056008DF85B108DF85C20C0F2E0812B26E0
:10156000554AD91742F210748DF85E6082FB03254C
:101570004FF47A768AFB0320C1EB25358BFB03728F
:10158000C1EBA01004FB1534303506FB1030C1EB65
:1015900062128DF85F506426464D24B200B206FBFD
:1015A000123285FB0357E6178AFB044512B28BFB08
:1015B000004EC1EBA701C0173E4C01EB8101C0EB0F
:1015C0006E1084FB0247D4170022A3EB4103303096
:1015D000C6EBA5152E26C4EBA70403F130018DF848
:1015E000610030353648303441278DF864100123CE
:1015F00005A900688DF860508DF863408DF8626031
:101600008DF8657005F0C6F901287FF463AEBDF969
:1016100014302C4A002BCDF86620C0F297812B267F
:10162000254AD81742F210748DF86A6082FB0325B0
:101630004FF47A768AFB0321C0EB25358BFB0372CE
:10164000C0EBA11104FB1534C0EB621206FB113193
:101650006426303524B206FB1232164E8DF86B50DC
:10166000E51786FB037609B28AFB047412B2C0EB5D
:10167000A6008BFB0176C5EBA4140E4D00EB800099
:1016800085FB0275C917D2173034A3EB400309203C
:10169000C2EBA5022E25C1EB6611303330328DF836
:1016A0006E503031BDF916500EE000BF604300208F
:1016B0006440002067666666AD8BDB68CDCCCCCC21
:1016C0004C4000200946513A8DF86C4041248DF879
:1016D0006D10002D8DF870304FF046018DF86F20A1
:1016E0004FF03A034FF044028DF871408DF87200CC
:1016F0008DF873108DF874208DF87530C0F220814C
:101700002B23BDF81A704FEAE57CBDF918E08DF87F
:101710007630AAFB07234FEAEE708AFB0E29BDF84C
:101720001C609B09ABFB0724C0EBA919AAFB062888
:1017300003934FF47A7364098BFB0E2103FB19E3C7
:1017400009F1300902944FEA98141BB28DF8849085
:1017500022468AFB05484FEAE3798BFB0343CCEB37
:10176000A818C9EB63134FF47A79C0EB611109FB38
:10177000185830334FF064090FFA88F48DF885302B
:10178000754B09FB11E1019483FB0E83029C8DF8DC
:101790007F9009B209FB1474C0EBA300ABFB0638C1
:1017A0006E4B00EB8000A4B2AEEB400EA3FB043402
:1017B0004FEA58188BFB05030EF1300E09FB186831
:1017C000E408CCEB63138DF887E01FFA88F004F18E
:1017D000300809FB1353614C8DF88B804FF47A78F5
:1017E0001BB2A4FB004042F210740293C0085C4B91
:1017F000303083FB059E584B8DF8900083FB0139F8
:10180000039BC917039208FB1370CCEB2E3E08FB19
:101810001262C1EBA90180B203F13008303192B2FB
:10182000039B04FB1E548DF886100EF1300EABFBAB
:10183000001003F13009ABFB0212474940098DF853
:10184000898081FB0531520930308DF88E90CCEBC8
:10185000A10C42498DF88A0030320198A1FB078122
:101860008DF88F2024B24FEAD10803463B490CEB98
:101870008C0C8BFB0332384BA1FB061908EB88015B
:101880004FEAE07802984FEAD9098DF877E0C8EB83
:10189000621883FB0032C3174FF03A0E09EB890937
:1018A00008F13008C3EBA2038AFB0402E417752099
:1018B000A5EB4C0C3033A7EB41018DF87980C4EBDC
:1018C000A2140CF1300CA6EB4906303130342E2234
:1018D00030368DF87B308DF8784074238DF88C107D
:1018E00041278DF8916009252C268DF87CC079243C
:1018F0008DF87A205C228DF880008DF881305B2194
:101900008DF87D7010468DF87E505A238DF88240F8
:101910008DF883E08DF888608DF88D60DEE45B42A1
:101920002D261BB2ADF82C301AE6CCF1000C2D227E
:101930000FFA8CFCADF834C051E523B0BDE8F08F50
:101940006D422D232DB2ADF81650DAE65B422D26FE
:101950001BB2ADF8143063E667666666CDCCCCCCBE
:10196000AD8BDB68304B314A18462DE9F04100243D
:10197000012502264FF0C0484FF480771D725D723A
:10198000C3F81C801F625E6283E8140001F0C0FA95
:10199000274B284A1846C3F81C801A605C601D72E9
:1019A0005D721F625E6201F0B3FA234B4FF4400296
:1019B00022491846DE601C719C601C615C619C6160
:1019C000DC611C629D62DC621C6319605A6201F07A
:1019D000D5F928BB1A4B002202251A4E4FF44004B9
:1019E000012118461E60DD605C6299621A719A607E
:1019F0001A615A619A61DA611A62DA621A6301F055
:101A0000BDF908B100F0EEFB01220748114601F0D4
:101A1000F5FA01220C490648BDE8F04101F0EEBAA2
:101A200000F0E0FBD6E700BF743E002000750140E7
:101A3000C03F002080750140144000200074014028
:101A4000C83E00206074014008000300F0B5504C0F
:101A500089B00023054622680493039305930693F7
:101A60000793002A31D14B4A13680133012B1360CD
:101A700034D0494B302002260A271A6B03A942F0C2
:101A800010021A631A6B02F010020192019A1A6B8B
:101A900042F008021A631B6B039003F008033F48EF
:101AA000079718270293029B049601F001FD00237B
:101AB000062203A93A4805930693049603970792D2
:101AC00001F0F6FC2368013323602B68354A93420A
:101AD00033D0354A93420CD009B0F0BD2E4B5A6C2E
:101AE00042F000525A645B6C03F000530093009B79
:101AF000BFE702F56E422D4C4FF080534FF48060EB
:101B0000A8324FF480574FF480464FF48071226022
:101B10004FF4803263600023206120466761A66134
:101B2000E1612262A360E360636201F00FFB58BBD6
:101B3000EC62AC62A56309B0F0BD02F56F421C4CCB
:101B40004FF080534FF4806010324FF480574FF4C1
:101B500080464FF4807122604FF48032636000232E
:101B6000206120466761A661E1612262A360E360B3
:101B7000636201F0EBFA20B92B68EC62AC62A563FA
:101B8000A7E700F02FFBF7E700F02CFBD0E700BF42
:101B9000EC000020F000002000380240001002405D
:101BA000000C02400075014080750140003F00209C
:101BB000603F0020F0B5254C89B0002322680493D3
:101BC0000393059306930793002A31D1204A1368A3
:101BD0000133012B13602DD01E4B02250A2630271E
:101BE0001A6B03A91C4842F010021A631A6B02F028
:101BF00010020192019A1A6B42F008021A631B6BE1
:101C00000796182603F00803039704950293029B96
:101C100001F04EFC0023062203A910480593069309
:101C200004950396079201F043FC23680133236077
:101C300009B0F0BD074B5A6C42F000525A645B6C1D
:101C400003F000530093009BC6E700BFEC000020A8
:101C5000F00000200038024000100240000C02405A
:101C60001B4B002205210D2010B51C6B82B044F4E3
:101C700080041C631C6B04F480040094009C1C6BA7
:101C800044F400141C631B6B03F400130193019BC9
:101C900001F02EF80D2001F065F800220521382012
:101CA00001F026F8382001F05DF8002205213920E6
:101CB00001F01EF8392001F055F8002205213A20E4
:101CC00001F016F83A2001F04DF802B010BD00BF47
:101CD00000380240F0B5AFB00025524C2EA80BAE34
:101CE000274640F8B85D04F09BF84F4B18600FCFC3
:101CF0003F680FC629460BA8376004F071F804F15D
:101D000014074A4B10AE18600FCF3F680FC6294624
:101D100010A8376004F064F804F12807444B15AEAE
:101D200018600FCF3F680FC6294615A8376004F02A
:101D300057F804F13C073F4B1AAE18600FCF3F68CD
:101D40000FC629461AA8376004F04AF804F1500774
:101D5000394B1FAE18600FCF3F680FC629461FA82A
:101D6000376004F03DF804F16407344B24AE18608A
:101D70000FCF3F680FC6294624A8376004F030F81B
:101D800004F178072E4B29AE18600FCF3F680FC6BD
:101D9000294629A8376004F023F804F18C02294968
:101DA00001AB086092E8030083E803002946184667
:101DB00004F03AF804F19402234903AB086092E876
:101DC000030083E803002946184604F02DF804F1C7
:101DD0009C021E4905AB086092E8030083E80300FB
:101DE0002946184604F020F804F1A402184907AB6C
:101DF000AC34086092E8030083E8030029461846E3
:101E000004F012F8134A09AB106094E8030083E869
:101E100003002946184604F007F80F4B18602FB04E
:101E2000F0BD00BF08840008604000205C40002036
:101E300068400020704000206C4000207840002066
:101E4000504000207C40002054400020584000209A
:101E500064400020744000204C4000202DE9F041F7
:101E60003D4B8CB000240125DFF8F8800C2108944C
:101E70002246079409940A940B94186B374E40F04D
:101E80001000186340461F6B07F010070197019F71
:101E90001F6B47F080071F631F6B07F080070297D7
:101EA000029F1F6B47F004071F631F6B07F00407B7
:101EB0000397039F1F6B2F431F631F6B2F400497D4
:101EC000049F1F6B47F002071F631F6B07F0020799
:101ED0000597059F1F6B47F008071F631B6B204F7B
:101EE00003F008030693069B01F00CFC22463046E3
:101EF0004FF4C05101F006FC22463846402101F063
:101F000001FC0C221123404607A90792089309946B
:101F10000A9401F0CDFA4FF4006307A93046099402
:101F200007930A94089501F0C3FA4FF480520223F4
:101F3000304607A9079209930A94089501F0B8FA68
:101F4000402307A93846089509950A95079301F09B
:101F5000AFFA0CB0BDE8F081003802400008024042
:101F6000000402400010024038B5134B002201214A
:101F7000124D134C18461D605C60D9609A601A615E
:101F80005A619A61DA611A6201F0C4FB88B90021D2
:101F9000094801F015FC48B90021074801F038FC58
:101FA00000B938BDBDE8384000F01CB900F01AF99E
:101FB000F2E700F017F9EAE78040002000600040F7
:101FC0006847402001680023184AF0B5914289B063
:101FD0000493039305930693079301D009B0F0BDD2
:101FE000134C4FF4405E04221227236B0126032575
:101FF00003A943F008030F482363236BCDF80CE0DB
:1020000003F00803049705960193019B0695079238
:1020100001F04EFA236C43F080732364236C03F0C9
:1020200080730293029B09B0F0BD00BF00600040C6
:1020300000380240000C0240F0B5B9B03422002153
:10204000022407A8012505F0B4FB0023902214A860
:102050001946029303934FF4803604934FF480079C
:102060000593069305F0A5FB254A07A8254B116C9F
:1020700041F080511164D821126C02F0805200921C
:10208000009A1A6842F440421A6004221B680795BD
:1020900003F4404308960D940193019B11940E970D
:1020A0000F921292109101F035FE00B1FEE701F09F
:1020B000F5FD034600B1FEE74FF480520F274FF4C1
:1020C000A05602A80721049303940297059606924E
:1020D00001F0F8FF034600B1FEE70B4E102440214B
:1020E0004FF4804214A82595309336931496279484
:1020F00028912C9202F026F900B1FEE739B0F0BD2C
:1021000000380240007000404023020880B5BFF351
:102110004F8FBFF36F8F2D480022C0F850224369C4
:1021200043F400334361BFF34F8FBFF36F8FC0F8A9
:102130008420BFF34F8FD0F8803043F6E07EC3F3A6
:10214000C906C3F34E33B7075D0105EA0E043946ED
:10215000324644EA0103013A01F14041C0F86032DD
:10216000531CF6D1203D15F1200FEED1BFF34F8F58
:10217000436943F480334361BFF34F8FBFF36F8FE5
:1021800000F068FDFFF758FFFFF768FEFFF768FDF6
:10219000FFF7E8FBFFF7E8FE00F026F800F08CFA06
:1021A00000F022FB00F04AFB00F06AFB00F08AFB23
:1021B00000F098FC00F010F900F0B6F9FFF738F8DD
:1021C000FFF788FD03F006FEFEE700BF00ED00E02C
:1021D0000268034B9A4200D0704700F051BD00BF27
:1021E00000080040FEE700BFF8B5114A4FF48270C6
:1021F000104B4FF4E0674FF4007630250724082198
:102200001A60002258601846DF609E61DD61DC6262
:1022100059639A601A615A611A625A629A621A6321
:1022200002F030FB00B9F8BDBDE8F840FFF7DABFB7
:1022300000300140CC4000200268204BF0B59A42AB
:1022400089B04FF000040494039405940694079415
:1022500001D009B0F0BD03F58433022780200326A6
:102260005A6C052503A942F480525A645A6C02F450
:1022700080520092009A1A6B42F008021A631A6B9D
:1022800002F008020192019A1A6B3A431A631B6B1F
:1022900003903B400A4804970293029B06960795D9
:1022A00001F006F9182303A9064804970696079536
:1022B0000594039301F0FCF809B0F0BD0030014033
:1022C000000C0240000402400E4B00220F216FF070
:1022D000010010B51C6C82B044F080541C641C6C6E
:1022E00004F080540094009C5C6C44F480445C6472
:1022F0005B6C03F480430193019B00F0F9FC02B096
:1023000010BD00BF0038024070B5014688B0002201
:102310001E2000F0EDFC1E2000F024FD154B01A94D
:1023200003A81A6C144E42F00402144C144D1A64A3
:102330001B6C03F004030293029B01F0E1FF01F028
:10234000BFFF0022430040F2E7312560A6FB0303F4
:102350002046E1609B0C2261A260013B636002F0B9
:10236000F3FA10B1012008B070BD204602F0A2FBC4
:1023700008B070BD0038024083DE1B4330410020AE
:1023800000080040704700BFFEE700BFFEE700BF47
:10239000FEE700BFFEE700BF704700BF014800F046
:1023A000B7BF00BF30420020014802F02BBD00BF84
:1023B00030410020014800F0ABBF00BF603F00206B
:1023C000014800F0A5BF00BF003F0020014800F019
:1023D0009FBF00BF00430020F0B56B204D4C002391
:1023E00097B04FF080454CF250318022606020461B
:1023F0002560E160A261A360069303930F932361BC
:1024000007930893099304930593109311931293E0
:1024100013931493159302F097FA00283AD14FF4CE
:10242000805306A93B48069302F01CFC00282ED1DD
:10243000384802F04DFB38BB002303A9354803930D
:10244000059302F075FEE0B9002360250FA931481D
:102450001A461093119313930F9502F0E7FE08B1FB
:10246000FFF7C0FE236800242B4A0B9493420A9482
:102470000C940D940E9426D0B3F1804F0DD017B06C
:10248000F0BDFFF7AFFEDFE7FFF7ACFED4E7FFF7E5
:10249000A9FECDE7FFF7A6FEC1E703F50E33012441
:1024A0004FF4004602251A6B0AA91C4822431A63FE
:1024B0001B6B0A9623400B950D940293029B0E947E
:1024C00000F0F6FFDBE7164B0125022680271A6B8A
:1024D0000AA912482A431A631A6B2A400092009AEA
:1024E0001A6B42F010021A631B6B0A9703F0100379
:1024F0000B960E950193019B00F0DAFF4FF4785391
:102500000AA908480B960E950C940D940A9300F0B6
:10251000CFFFB4E7F041002000000140000002407E
:102520000038024000100240194A00234CF250319A
:10253000104630B56B2489B0164D54601560D160DB
:10254000936004930193136193610593069307933A
:102550000293039302F0F8F9B0B94FF4805304A941
:102560000B48049302F07EFB58B9002301A90848E8
:102570000193039302F0DCFD08B1FFF733FE09B0CD
:1025800030BDFFF72FFEF0E7FFF72CFEE5E700BFB9
:102590007041002000040040036884B0174A934251
:1025A00013D0B3F1804F1CD0154A934201D004B030
:1025B0007047144B1A6C42F002021A641B6C03F051
:1025C00002030393039B04B070470E4B5A6C42F016
:1025D00001025A645B6C03F001030193019B04B098
:1025E000704703F50E331A6C42F001021A641B6C3B
:1025F00003F001030293029BD9E700BF00000140F2
:1026000000040040003802400368274AF0B59342B6
:1026100089B04FF000040494039405940694079441
:102620001AD0B3F1804F01D009B0F0BD03F50E33DD
:1026300001244FF4004602251A6B03A91B482243CC
:102640001A631B6B03962340049506940293029B26
:10265000079400F02DFFE7E7154B012502268027A0
:102660001A6B03A911482A431A631A6B2A40009275
:10267000009A1A6B42F010021A631B6B039703F067
:102680001003049607950193019B00F011FF4FF48E
:10269000785303A907480496079505940694039375
:1026A00000F006FFC0E700BF00000140000002404C
:1026B000003802400010024070B500249AB02C226D
:1026C000474D21460FA8049401940894059406945C
:1026D00007940294039409940A940B940C940D9417
:1026E0000E9405F066F83F4B20214FF40762184620
:1026F0005C601C615C619C611D609960DA6002F045
:1027000023F9002868D14FF4805304A93548049375
:1027100002F0A8FA00285CD1324802F0D9F900286A
:1027200054D1002301A92F4801930293039302F08F
:10273000FFFC002847D1002360254FF4117408A93D
:102740001A4628480A930B930C930D930E93089501
:10275000099402F06BFD002832D10023042208A95D
:102760002048099302F062FD38BB08A908221D48E1
:1027700002F05CFDF0B900232D264FF400554FF018
:1027800000744FF480420FA916480F9310931193D1
:1027900013931593169318931296149517941992F0
:1027A00002F0F2FC08B1FFF71DFD0E48FFF72CFF09
:1027B0001AB070BDFFF716FDDDE7FFF713FDD4E794
:1027C000FFF710FDC9E7FFF70DFDB4E7FFF70AFDBE
:1027D000A7E7FFF707FD9FE7FFF704FD93E700BFBB
:1027E00000000140B0410020F8B5114A0427114B08
:1027F000B02611484FF480554FF400544FF4002197
:102800001A600022586018465F615E629D63DC6357
:1028100099649A60DA601A619A61DA611A6202F068
:1028200095FF00B9F8BDBDE8F840FFF7DBBC00BF7D
:10283000004C00404044002000127A000D4B002262
:102840004FF40041184670B50C240B4E0B4D1E6022
:102850005D605C61D9619A60DA601A619A611A629E
:102860005A6202F073FF00B970BDBDE87040FFF717
:10287000B9BC00BFD0430020007C0040AAE696010E
:10288000F8B50E4B00224FF461260D4F0C25102495
:102890004FF4805118461F605E605D615C62996311
:1028A0009A60DA601A619A61DA611A6202F04EFF88
:1028B00000B9F8BDBDE8F840FFF794BC60430020C4
:1028C000001001400D4B00224FF40041184670B536
:1028D0000C240B4E0B4D1E605D605C61D9619A60EB
:1028E000DA601A619A611A625A6202F02FFF00B927
:1028F00070BDBDE87040FFF775BC00BF904200207E
:1029000000480040AAE696016A4A0368F0B593427F
:102910008FB04FF0000405460A9409940B940C9470
:102920000D942CD0644A934200F0A480634A9342F1
:1029300064D0634A934201D00FB0F0BD614B4FF4B5
:102940004077022603251A6C072409A95E4842F441
:1029500080221A641A6C02F480220792079A1A6B7A
:1029600042F008021A631B6B099703F008030A96EA
:102970000C950893089B0D9400F09AFDDCE7514BF1
:1029800003264FF0020E08271A6C09A94F4842F49B
:1029900000221A641A6C02F400220192019A1A6B46
:1029A00042F001021A631B6B099603F001030C96B7
:1029B000474E0293029BCDF828E00D9700F078FD7A
:1029C0004FF00067DFF818E14FF480614FF4807238
:1029D0004FF480333046B460F4607461B461746263
:1029E000C6F800E077603161F261336200F0AEFB5F
:1029F00000283CD16E66B5630FB0F0BD314B4FF48B
:102A0000C06002264FF0030E5A6C072709A942F056
:102A100010025A645A6C02F010020592059A1A6B61
:102A200042F001021A631B6B099003F0010327486F
:102A30000A960693274E069B0D97CDF830E000F0DE
:102A400037FD254F4FF000614FF480624FF48073E3
:102A50003046B460F4607461B461346274623760AB
:102A600071603261F36100F071FB0028C2D0FFF7A2
:102A7000B9FBBFE7134B0324022608251A6C09A9EA
:102A8000164842F000421A641A6C02F000420392A7
:102A9000039A1A6B42F010021A631B6B099403F03D
:102AA00010030C940A960493049B0D9500F000FD0E
:102AB00042E700BF004C0040007C00400010014095
:102AC0000048004000380240000C02400000024074
:102AD00030420020004300204064024000100240C9
:102AE0004060024038B50C4B002209240B4D0121F7
:102AF00018461D605C6099611A615A61DA611A6258
:102B00005A62DA621A635A6300F0AAFE00B938BD4D
:102B1000BDE83840FFF766BBB04400200000044029
:102B20000268334B2DE9F0419A428AB04FF000041D
:102B30000694059407940894099402D00AB0BDE85D
:102B4000F0812C4D4FF002080D2203272B6B0A2633
:102B500005A9294843F004032B632B6B03F00403FE
:102B60000093009B2B6B43F001032B632B6B03F053
:102B700001030193019B2B6B43EA08032B632B6B2F
:102B8000059203EA0803CDF8188008970293029B88
:102B9000099600F08DFC282305A918480593CDF867
:102BA000188008970996079400F082FC43F62343A7
:102BB00005A913480593CDF818800897099607943E
:102BC00000F076FC2B6B43F000532B632B6B03F070
:102BD00000530393039B2B6B43F080432B632B6BBE
:102BE00003F080430493049B0AB0BDE8F08100BF6A
:102BF000000004400038024000080240000002408B
:102C0000000402400F4A104BD2F888000F4940F4EC
:102C1000700070B4C2F88800002418684FF0006596
:102C20000B4E40F0010018609C601868014019606C
:102C30005E60196821F480211960DC60956070BCC9
:102C4000704700BF00ED00E000380240FFFFF6FED5
:102C50001030002408B5094B03201A6842F40072B2
:102C60001A601A6842F480721A6000F02DF8002091
:102C7000FFF74AFBFFF728FB002008BD003C02409D
:102C8000034A044B11681B780B441360704700BF64
:102C9000B048002020000020014B1868704700BF9A
:102CA000B048002038B50446FFF7F6FF0546631C20
:102CB00002D0044B1B781C44FFF7EEFF401B8442FC
:102CC000FAD838BD2000002007490002074BCA6827
:102CD00000F4E06010B44FF6FF0422405DF8044BAE
:102CE00013431843C860704700ED00E00000FA0588
:102CF000194B70B4DC68C4F30224C4F10706231D29
:102D0000042E28BF0426062B19D9033C0125A54013
:102D1000013D2A400123002803FA06F303F1FF33A3
:102D200001EA030101FA04F141EA02010ADB0901A7
:102D30000A4BC9B2034483F8001370BC70470022E9
:102D40001446E7E700F00F000901054BC9B2034440
:102D5000197670BC704700BF00ED00E000E100E0B4
:102D6000FCEC00E000F01F010123034A40098B4006
:102D700042F82030704700BF00E100E050B35F4AE6
:102D8000F8B50368934227D02032934200F0878041
:102D9000203293421AD02032934213D020329342F1
:102DA00016D0203293427CD0203293420CD0203275
:102DB000934214BFFF230723514D55F823306BB1C5
:102DC0000120F8BD0323F7E70623F5E70223F3E725
:102DD0000423F1E7012070470023EDE70446FEF7E6
:102DE000E9FE484B1A6801321A601B68012B5CD05F
:102DF00023680120666919682269A76921F4714175
:102E00003243E66919603A431968276A0A43D4F8DD
:102E100024C0A16A3E431A601F684A1ED4F830E0FD
:102E200027F00F071F601968E76A0E431E60996854
:102E3000324E21F45F01B3429960996841EA0C0176
:102E400041EA02419960596801F0070159605A68E6
:102E500042EACE0242EA07225A601A6842F0800231
:102E60001A6084F834003BD0274A934213D02032B2
:102E7000934231D02032934215D0203293422DD04C
:102E8000203293422ED02032934234D01F488342C6
:102E900014BFFF20072045F820400020F8BD012383
:102EA0008AE7052388E70320F5E7144B21791A68A0
:102EB000012922F080421A601A68A06842EA0002E2
:102EC0001A601A6822F47F021A600DD00B4A136848
:102ED00043F0004313608BE70220DCE70420DAE7CD
:102EE0000020D8E70520D6E7E1681A68013942EAF0
:102EF00001421A60EAE70620CDE700BF00740140F6
:102F0000F40000201401002020740140E07401400E
:102F100000286BD00268F8B5354B9A4259D0002290
:102F2000012304460263026543648364FEF78EFD59
:102F30002368217A1A68012922F400221A601A688B
:102F40000CBF42F0005222F000521A60627A012A4D
:102F50001A680CBF42F4001222F400121A60254ACB
:102F60001968D4F80CE00A40BEF1020F1A6038D09C
:102F7000257C01261A680020012D1F490CBF42F054
:102F8000100222F010021A60627C012A1A680CBF3B
:102F900042F0200222F020021A605A69E7691140CB
:102FA000626A5961013A59690A43216A3A4301390F
:102FB000676842EA0142A1695A611A68C4F838E0B8
:102FC000324384F840506763E1631A6084F84C60D0
:102FD000F8BD4368012B02D0C368012B9FD118466E
:102FE000F8BD1A6861690A431A60C1E70120704799
:102FF00000750140F780FFFF00FF001C90F84C3087
:10300000013BDBB2FD2B12D8104B012A30B404680F
:10301000256803EA050323600BD00902236801F049
:103020007F41194321600263002030BC70470120BA
:1030300070470B02216803F07F4343F480230B4366
:1030400023600263002030BC704700BFFFFFFBF825
:1030500090F84C3003F0FD02012A01D001207047A6
:10306000426B9AB10268032B116821F001011160D3
:10307000116841F400211160116841F001011160F3
:1030800010D0022380F84C30002070470168012BDB
:103090000A6842F400320A60F3D0042380F84C300E
:1030A00000207047836B1BB9136843F00203136061
:1030B00090F84030012B4FF004030CBF426C01220A
:1030C0008264DFE70368D86900F0070300120B6031
:1030D000704700BF704700BF90F84C30022B03D000
:1030E000042B01D00120704770B50C460546FFF750
:1030F000D3FD0646631C2A6814D193689807FCD553
:1031000093681B0719D42B6B53B9686B40B995F8BA
:103110004C30022B14BF0323012385F84C3070BDC3
:10312000002070BD93689907EAD424B1FFF7B4FD7D
:10313000801B8442DED2032070BD012328462B650C
:10314000FFF7C8FF2B680822DA60DCE7F8B5044611
:10315000FFF7A2FD002C76D002222368002105464D
:1031600084F835201A6884F8341022F001021A60BD
:1031700005E0FFF791FD401B05283ED823681A683B
:10318000D107F6D4A1686268E0680A4321696569DD
:103190000243A669E0690A43374F19682A43656A02
:1031A0000F40216A3243042D42EA000242EA010242
:1031B00042EA070228D01A605A6922F00702154332
:1031C000DAB22E482E49103A5D610125A0FB0202B9
:1031D0001209885C032A2B4A4FF00001E06502EADD
:1031E00003024FF03F0388BF043283400846A265C4
:1031F0009360616584F83550F8BD0323202218469A
:10320000626584F83530F8BDE06A216BA76A014336
:1032100047F004050A431A605A6922F00702154371
:103220000028CDD08EB1B6F5005F18D0022F03D99B
:10323000032FC5D1C201C3D50123402218466265C0
:1032400084F83530F8BD0120F8BD012F03D0F1D34B
:10325000022FB5D1EEE7B0F1C07FB1D1ECE7032F7B
:10326000AED801A252F827F03932000835320008F2
:1032700039320008573200083F8010E0ABAAAAAAF2
:103280003485000800FCFFFFF0B490F83440012CB6
:103290000ED0012590F83540866DAC4280F8345050
:1032A0000AD00022022380F834201846F0BC704770
:1032B0000223F0BC1846704704680227002580F8F6
:1032C0003570456587682568402F25F48025256081
:1032D000636019D0A160E260C16D3F23026C8B4036
:1032E000B360236843F016032360636943F08003EF
:1032F00063611AB1236843F0080323602268002346
:1033000042F001022260D0E7A260E160E4E700BF82
:10331000F0B5044683B000200822A76DE36D01904C
:103320009A403D68604915420E6803D021680868DC
:10333000400776D401229A40154203D0216849699A
:10334000080668D404229A40154203D0216809680F
:1033500089075AD410229A40154203D02168086880
:1033600000073FD420229A40154203D02168086804
:10337000C00625D4636D0BB3636DDA071AD5052338
:1033800021684A4A84F83530A2FB06320B6823F0E4
:103390000103920A0B6002E00B68DB0704D5019B76
:1033A00001339A420193F7D20022012384F834209A
:1033B00084F83530E36C0BB12046984703B0F0BD7C
:1033C000BA6094F83520052A3BD00B6813F4802F9F
:1033D0000B6854D019035FD5E36B002BCAD020468D
:1033E0009847C7E7BA600A6812F4802F0A6822D1AA
:1033F000D20503D40A6822F008020A60226C002A6F
:10340000B0D020469047E36DACE7BA60626D42F001
:10341000040262659EE7BA60626D42F00202626574
:1034200090E7086820F004000860BA60626D42F01E
:10343000010262657EE71103E0D5A26C002AE0D1AB
:1034400090E70A68206C22F016020A604A6922F0AE
:1034500080024A6120B30A6822F008020A603F2213
:1034600000250120216D02FA03F3BB6084F834507B
:1034700084F835000029A1D0204688479EE713F440
:103480008073A9D10A68012022F010020A6084F832
:10349000343084F835009FE7636C002B9FD169E7D7
:1034A000A26C002AD7D1DAE71C000020B5814E1BA0
:1034B0002DE9F04FD1F800C083B00025DFF82C8251
:1034C000DFF82CE203E00135102D00F0BF8001236E
:1034D000AB4003EA0C029342F5D14E6826F0100986
:1034E000B9F1020F40F0B5804FEAD50905F0070A9F
:1034F0004FF00F0B0C6900EB89094FEA8A0AD9F8E3
:1035000020700BFA0AFB04FA0AF44FEA450A27EA8C
:103510000B074FF0030B3C430BFA0AFB06F00307C3
:10352000C9F820406FEA0B04D0F8009007FA0AF7B8
:1035300004EA090947EA090707608768C6F3001922
:1035400007EA040BCF6809FA05F907FA0AF747EA10
:103550000B078760476827EA030349EA03034360D0
:10356000C7688B683C4003FA0AF32343C360F30047
:10357000A9D5D8F8444025F0030705F003034FF020
:103580000F0944F4804407F180479B00C8F8444089
:1035900007F59C37D8F8444009FA03F904F480444D
:1035A0000194019CBC6824EA090A4B4CA04269D0F2
:1035B00004F58064A04267D0484CA04269D0484CD2
:1035C000A0426BD0474CA0426DD0474CA0426FD078
:1035D000DFF82091484570D0DFF81C91484571D044
:1035E000DFF81891484572D0DFF8149148450CBFB8
:1035F0004FF009094FF00A0909FA03F343EA0A03F5
:10360000D4430135BB60F703DEF8003054BF2340DC
:103610001343B703CEF80030DEF8043054BF234024
:103620001343F702CEF80430DEF8083054BF2340CD
:103630001343B602CEF80830DEF80C3054BF2340F6
:103640001343102DCEF80C307FF441AF03B0BDE82A
:10365000F08F4FEA450A0324D0F800B009F1FF3992
:1036600006EA040704FA0AF4B9F1010F6FEA040448
:1036700007FA0AF70BEA040B47EA0B0707603FF665
:103680006FAF5AE70023B9E74FF0010909FA03F3D6
:10369000B4E74FF0020909FA03F3AFE74FF003096B
:1036A00009FA03F3AAE74FF0040909FA03F3A5E7BF
:1036B0004FF0050909FA03F3A0E74FF0060909FAEC
:1036C00003F39BE74FF0070909FA03F396E74FF07E
:1036D000080909FA03F391E70000024000080240DC
:1036E000000C02400010024000140240003802406A
:1036F000003C014000180240001C02400020024033
:103700000024024002B909048161704743695940AD
:103710004161704700284FD0F8B590F84130044619
:1037200003F0FF02002B3ED023682421626884F856
:103730004110196822F07062E06821F0010101284F
:1037400019601A619A6822F400429A60A2682FD028
:1037500042F4044202289A6021D05E680021174D8D
:103760004FF0200E2269084635436669A769324347
:103770005D60E569DE6842EA0722276A26F40046B2
:103780003D43DE60DA601D601A6842F001021A6093
:10379000616484F841E0216384F84210F8BD4FF47D
:1037A00000625A60D9E780F84020FEF70BFCBBE7C7
:1037B00042F400429A60D0E7012070470080000286
:1037C00090F84130DBB2202B01D002207047024636
:1037D00090F840000128F8D0242070B41468002626
:1037E00082F841002568304625F0010525602568EE
:1037F00025F480552560256829432160216841F022
:103800000101216082F8406082F8413070BC70474D
:1038100090F84130DBB2202B01D0022070470246E5
:1038200090F840000128F8D0242070B414680026D5
:1038300082F841002568304625F00105256025689D
:1038400025F4706545EA01212160216841F00101FC
:10385000216082F8406082F8413070BC704700BF40
:10386000002800F0038290F8BD332DE9F04F03F0FB
:10387000FF028DB00446002B00F0EF814FF00308EB
:103880002746206804F1040984F8BD83002502F06E
:103890007DF957F810CBEE4601264FF0040B4FF0A0
:1038A000050A0FCFAEE80F000FCFAEE80F0097E884
:1038B00003008EE803006046CDF82C9099E80E00D6
:1038C00002F008F9294620684FF0060902F066F96F
:1038D0004FF0020E4FF009020720082184F8908073
:1038E000A4F896800A2384F874E0A446A4F87AE049
:1038F00084F83D6084F8596084F85860A4F85E60EC
:1039000084F8756084F8916084F8AD6084F83C5068
:10391000A4F8425084F83F506564A564256584F896
:103920005B5025666566E56684F87750E567C4F800
:103930008050C4F8885084F89350C4F89850C4F864
:103940009C50C4F8A45084F8AF5084F8ACB0A4F8EC
:10395000B2B0C4F8B45084F838214FF0090284F8AA
:103960000001A4F8060184F81C11A4F82211C4F87F
:10397000B850C4F8C05084F8C96084F8CB50C4F87B
:10398000D050C4F8D450C4F8DC5084F8E56084F812
:10399000E750C4F8EC50C4F8F050C4F8F85084F87C
:1039A000016184F80351C4F80851C4F80C51C4F8FB
:1039B000145184F81D6184F81F51C4F82451C4F8CF
:1039C0002851C4F8305184F8396184F8C8A0A4F8AB
:1039D000CEA084F8E490A4F8EA90A4F83E214FF039
:1039E0000B0284F8543184F870214FF00B02A4F8D4
:1039F0005A31A4F876214FF00C0284F83B5184F838
:103A00008C214FF00C02C4F84051A4F892214FF0E1
:103A10000D02C4F8445184F8A8214FF00D02C4F8F7
:103A20004C51A4F8AE214FF00E0284F8556184F891
:103A30005751C4F85C51C4F86051C4F8685184F817
:103A4000716184F87351C4F87851C4F87C51C4F89A
:103A5000845184F88D6184F88F51C4F89451C4F86E
:103A60009851C4F8A05184F8A96184F8AB51C4F806
:103A7000B051C4F8B451C4F8BC5184F8C56184F89D
:103A8000C4214FF00E0284F85082A4F8CA214FF0EE
:103A9000090284F834E2EE4684F8C751C4F8CC51E8
:103AA000C4F8D051C4F8D85184F8FD5184F8FC51C1
:103AB00084F8FF51C4F80452C4F80852C4F81052F4
:103AC00084F8195284F8186284F81B52C4F8205202
:103AD000C4F82452C4F82C5284F8355284F8375272
:103AE000C4F83C52C4F84052C4F8485284F85152C9
:103AF00084F85352C4F85852C4F85C52C4F8645263
:103B000084F86D5284F86CB284F86F5284F8F8220D
:103B10004FF00B0284F8C00284F8DC1284F888A20B
:103B2000C4F87452C4F87852C4F8805284F88952A8
:103B300084F88B52C4F89052C4F89452C4F89C5242
:103B400084F8A55284F8A49284F8A752C4F8AC5221
:103B5000C4F8B052C4F8B85284F8C15284F8C352C1
:103B6000C4F8C852C4F8CC52C4F8D45284F8DD5218
:103B700084F8DF52C4F8E452C4F8E852C4F8F052B2
:103B800084F8F95284F8FB52C4F80053C4F8045383
:103B9000C4F80C5384F830234FF00C0284F815530A
:103BA00084F84C234FF00D0284F8143384F8682312
:103BB0004FF00E0284F8175384F8315384F83353CE
:103BC00084F84D5384F84F5384F8695384F86B5349
:103BD00084F8855384F8842384F887535CF8108B29
:103BE000C4F81C53C4F82053C4F82853C4F83853FD
:103BF000C4F83C53C4F84453C4F85453C4F858535D
:103C0000C4F86053C4F87053C4F87453C4F87C53B8
:103C1000C4F88C53C4F89053C4F89853BCE80F0010
:103C2000AEE80F00BCE80F00AEE80F0097E8030015
:103C30008EE803000B9B40460ECB01F0CBFF636A7E
:103C400084F83850B34284F8BD630BD0206802F08A
:103C5000B5F800200DB0BDE8F08F80F8BC23FEF76A
:103C60005FFF0BE6204600F003F8EFE70120704706
:103C700003680121084A30B4C0F8F8130446996972
:103C8000002541F0006184F8F05328469961596D90
:103C90000A4330BC5A657047030000101B4A1C4B96
:103CA000116C41F0805130B5116483B0126C1C4628
:103CB00002F080520192019A1A6842F480321A602E
:103CC000FEF7EAFF054605E0FEF7E6FF401BB0F50C
:103CD0007A7F17D86368DA03F6D523680C4D43F46E
:103CE00000332360FEF7D8FF044605E0FEF7D4FF5B
:103CF000001BB0F57A7F05D86B689B03F6D50020D2
:103D000003B030BD032003B030BD00BF0038024017
:103D100000700040002800F0D08103682DE9F041D8
:103D2000DD0782B0044630D5AA498A6802F00C0249
:103D3000042A00F019818A6802F00C02082A00F0B7
:103D40000F816368B3F5803F00F05281002B00F0D3
:103D5000DB80B3F5A02F9F4B1A6800F0A68122F4F8
:103D600080321A601A6822F480221A60FEF794FFEB
:103D7000984D064605E0FEF78FFF801B642800F291
:103D8000EB802B689A03F6D523689F0729D5914AC3
:103D9000916811F00C0F00F08280916801F00C0125
:103DA000082979D0E368002B00F00981894B1A6853
:103DB0001D4642F001021A60FEF76EFF064605E05E
:103DC000FEF76AFF801B022800F2C6802B68980766
:103DD000F6D52B68226923F0F80343EAC2032B606F
:103DE00023681A071FD45D0736D57A4B1A6CD000AA
:103DF00073D50025784B1A68D10540F19C80A368E3
:103E0000012B00F0FB80002B00F0B880052B714BDC
:103E10001A6F00F00C8122F001021A671A6F22F06B
:103E200004021A67EFE06369002B43D0694B5A6FB5
:103E30001D4642F001025A67FEF72EFF064605E0D6
:103E4000FEF72AFF801B022800F286806B6F9B071B
:103E5000F6D523685D07C8D4A269CAB15D4B9968DD
:103E600001F00C01082921D0022A1A6800F0E7802D
:103E700022F080721C461A60FEF70EFF054604E031
:103E8000FEF70AFF401B022866D823689B01F7D47F
:103E9000002002B0BDE8F0815268560282D44D4A3B
:103EA0001268950724D5E268012A21D0012002B0CA
:103EB000BDE8F081474B5A6F1D4622F001025A6758
:103EC000FEF7EAFE064604E0FEF7E6FE801B022847
:103ED00042D86B6F9F07F7D4BBE71A6C012542F0FD
:103EE00080521A641B6C03F080530193019B81E79D
:103EF000384920690A6822F0F80242EAC0020A60E2
:103F00001A077FF570AF8EE7324B1A681D4622F410
:103F100080321A601A6822F480221A60FEF7BCFE12
:103F2000064604E0FEF7B8FE801B642814D82B6810
:103F30009B03F7D428E71A681E4642F480721A6081
:103F4000FEF7AAFE07463368DA053FF558AFFEF7DD
:103F5000A3FEC01B6428F6D9032002B0BDE8F0819F
:103F60004A6850027FF5EDAE1A4A126891037FF558
:103F70000CAF6268002A7FF408AF97E7154B41F257
:103F800088381A6F1E4622F001021A671A6F22F053
:103F900004021A67FEF780FE074604E0FEF77CFE87
:103FA000C01B4045D8D8336F9807F7D4002D3FF495
:103FB00053AF084A136C23F0805313644CE7054B4E
:103FC0001A681D4622F001021A60FEF765FE0646D9
:103FD00009E000BF0038024000700040FEF75CFEC0
:103FE000801B0228B8D82B689907F7D42368F8E615
:103FF000334A136843F480331360B7E6304A136FD3
:1040000043F001031367FEF747FE2D4E804641F251
:10401000883705E0FEF740FEA0EB0800B8429BD8C9
:10402000336F9B07F6D5002D3FF416AFC1E742F082
:1040300004021A671A6F42F001021A67E3E722F0DE
:1040400080721D461A60FEF727FE064605E0FEF761
:1040500023FE801B02283FF67FAF2B689901F6D420
:10406000226AE369616A1343E06AA26A43EA811340
:10407000216B5208124C43EA0063013A43EA017390
:1040800043EA02436B602B6843F080732B60FEF7BA
:1040900003FE054605E0FEF7FFFD401B02283FF644
:1040A0005BAF23689A01F6D5F2E642F480221A60EB
:1040B0001A6842F480321A6058E60120704700BF47
:1040C0000038024078B15E4A136803F00F038B4258
:1040D0000BD2136823F00F030B431360136803F034
:1040E0000F03994201D00120704703682DE9F04188
:1040F0009D0714D55C0704D5524CA26842F4E052E7
:10410000A2601A0704D54F4CA26842F46042A26034
:104110004C4C8568A26822F0F0022A43A260DF07B7
:1041200004460D4621D54268464B012A1B687BD0C8
:10413000022A71D0990728D5424941F288388B6804
:104140000E4623F0030313438B60FEF7A5FD0746DD
:1041500004E0FEF7A1FDC01B404562D8B368626869
:1041600003F00C03B3EB820FF3D1354A136803F06D
:104170000F039D420CD2136823F00F032B431360EF
:10418000136803F00F039D4202D00120BDE8F081C7
:1041900023685A0706D52B49E0688A6822F4E05262
:1041A00002438A601B0707D5264A2169936823F4D6
:1041B000604343EAC103936022498B6803F00C0318
:1041C000042B19D0082B2AD14A684B6802F03F0211
:1041D000496813F480032AD11B48C1F38811A1FB5D
:1041E0000001FCF72DF8174B5B68C3F30143013363
:1041F0005B00B0FBF3F300E0144B124A0020144CB8
:1042000092681449C2F30312A25CD3400B60FEF71C
:104210007BF80020BDE8F08198018DD4B5E70A4B0A
:10422000EBE70320BDE8F0819E0385D4ADE70748A6
:10423000C1F388110023A1FB0001FCF701F8D2E7CC
:10424000003C0240003802400024F40000127A00D2
:104250001C8500081C000020164908B58B6803F077
:104260000C03042B1BD0082B17D14A684B6802F0B3
:104270003F02496813F4800313D10F48C1F388113A
:10428000A1FB0001FBF7DCFF0A4B5B68C3F30143B2
:1042900001335B00B0FBF3F008BD074808BD0748D9
:1042A00008BD0648C1F388110023A1FB0001FBF7FC
:1042B000C7FFE9E7003802400024F40000127A004A
:1042C000044B054A9B680549C3F382230868D35C05
:1042D000D8407047003802402C8500081C000020A0
:1042E000044B054A9B680549C3F342330868D35C15
:1042F000D8407047003802402C8500081C00002080
:104300000E4B0F2202609A6802F0030242609A6824
:1043100002F0F00282609A6802F4E052C2609B6888
:10432000DB0810B403F4E053054C036123685DF827
:10433000044B03F00F030B60704700BF00380240CE
:10434000003C024003682DE9F04313F0010583B0FF
:1043500004460BD09D4A916821F400019160456BA1
:1043600091682943B5FA85F56D09916013F400262B
:1043700010D09649E66BD1F88C20B6F5801F22F458
:10438000401242EA0602C1F88C2000F0C081B6FA61
:1043900086F67609D90210D58C48216CD0F88C208D
:1043A000B1F5800F22F4400242EA0102C0F88C20ED
:1043B00000F0AB81002908BF012613F0807F18BFF1
:1043C00001259A0600F15A81DA060CD57F4AD2F807
:1043D0008C1021F08071C2F88C10D2F88C10A06B78
:1043E0000143C2F88C105F0408D57849606ED1F89B
:1043F000902022F440320243C1F89020180408D5DE
:104400007249A06ED1F8902022F440220243C1F8F4
:104410009020D90308D56D49E06ED1F8902022F4A0
:1044200040120243C1F890209A0308D56749206FD3
:10443000D1F8902022F440020243C1F890205F0698
:1044400008D56249606CD1F8902022F00302024343
:10445000C1F89020180608D55C49A06CD1F89020CE
:1044600022F00C020243C1F89020D90508D5574923
:10447000E06CD1F8902022F030020243C1F8902085
:104480009A0508D55149206DD1F8902022F0C0023C
:104490000243C1F890205F0508D54C49606DD1F802
:1044A000902022F440720243C1F89020180508D5EC
:1044B0004649A06DD1F8902022F440620243C1F831
:1044C0009020D90408D54149E06DD1F8902022F41C
:1044D00040520243C1F890209A0408D53B49206E0F
:1044E000D1F8902022F440420243C1F890205F02AC
:1044F00008D53649A06FD1F8902022F0806202439F
:10450000C1F8902098020CD53049E06FD1F8902086
:10451000B0F1006F22F0006208BF01260243C1F82B
:104520009020590308D52949606FD1F8902022F0D6
:1045300040720243C1F890201A0209D52349D4F8E9
:104540008000D1F8902022F080520243C1F89020E0
:104550005F0109D51D49D4F88400D1F8902022F0DC
:1045600000520243C1F89020180109D51749D4F828
:104570008800D1F88C2022F000720243C1F88C2010
:10458000D9000BD4B3F1007F16D0EA0714D4012E62
:1045900000F0C080002003B0BDE8F0830B49B3F108
:1045A000007FD4F88C00D1F88C2022F0806242EA9F
:1045B0000002C1F88C20E8D1044B1A681D4622F095
:1045C00080621A60FEF768FB074606E0003802408A
:1045D000FEF762FBC01B64284CD82B681B01F7D484
:1045E0002368DF0703D5626B002A00F0E1801D031A
:1045F00004D5E26BB2F5801F00F00581D80204D526
:10460000226CB2F5800F00F0FE80D90111D59A4DD1
:104610006068D5F88420D5F8847002F07062216952
:1046200007F0E0473A4342EA801242EA0142C5F805
:1046300084209A010DD5236962681B04E068A16893
:1046400043EA82138C4A43EA006343EA0173C2F8E7
:104650008430894B1A681D4642F080621A60FEF76A
:104660001BFB07462B681B0191D4FEF715FBC01BF3
:104670006428F7D9032003B0BDE8F0837E4A7F4B5E
:10468000116C1F4641F080511164126C02F080528F
:104690000192019A1A6842F480721A60FEF7FCFADD
:1046A000804605E0FEF7F8FAA0EB08006428E1D8A0
:1046B0003B68DB05F6D5704A236B116F03F440703D
:1046C00011F4407110D081420ED0116F176F21F498
:1046D000407147F480371767176F27F480371767E3
:1046E0001167116FCF0779D4B0F5407F00F0A78034
:1046F00061498A6822F4F8128A605F4AC3F30B03A7
:10470000116F0B43136723685EE6012555E600260B
:1047100001253FE6584B1A681D4622F080521A6068
:10472000FEF7BAFA064604E0FEF7B6FA801B6428E4
:10473000A0D82B689F00F7D4226810034AD4D10276
:104740001DD5236CDBB94C496569D1F88830D1F8A7
:10475000886003F44033A06906F0E046334343EA3F
:10476000851343EA0063C1F88830D1F88C30A06A21
:1047700023F4F853013843EA0023C1F88C30920245
:1047800003D5E36FB3F1006F62D03B4B1A681C4650
:1047900042F080521A60FEF77FFA054623689B00BC
:1047A0003FF5F8AEFEF778FA401B6428F6D961E7CA
:1047B000D5F88420D5F8847002F44032606807F0A0
:1047C0007067A1683A4342EA801242EA0172C5F872
:1047D00084200CE7E36B002BB5D0B0E7174641F21D
:1047E0008838FEF759FA814606E0FEF755FAA0EB45
:1047F000090040453FF63EAF3B6F9907F5D5236B67
:1048000003F4407070E71C4D6068D5F88420D5F83B
:10481000847002F44032E16807F0E0473A4342EA2C
:10482000801242EA0162C5F88420D5F88C10626AD1
:1048300021F01F01013A0A43C5F88C20E5E60E4835
:104840000F498268194022F4F8120A43826054E743
:10485000094A6569D2F88830D2F8881003F070638D
:10486000206A01F0E0410B4343EA851343EA004329
:10487000C2F8883089E700BF00380240007000406D
:10488000FFFCFF0F00285DD0002290F85D302DE97D
:10489000F0418262044603F0FF02002B4DD0E7682E
:1048A00002232268B7F5E06F84F85D3027F40061D9
:1048B000136894BF4FF48055002523F04003B1F5F1
:1048C000E06F136035D1A66A236B2BB9B7F5E06FA3
:1048D0008CBF022301232363A1684FF000086368A3
:1048E00020690B4361690343A0690B43E1694FEA07
:1048F000104E00F4007C0B43616A0EF0040E40463B
:104900000F43216A0B43616B0F4343EA0C034FF0E3
:10491000010C47EA0E0733433D4313605560D369EA
:1049200023F40063D361C4F8608084F85DC0BDE8FF
:10493000F08100231E46A362C6E780F85C20FDF7E5
:104940007BFCACE701207047002800F08D80F8B5B3
:1049500090F83D30044603F0FF02002B77D0226828
:1049600002234349B2F1804F84F83D30A2EB0101AC
:104970001368B1FA81F14FEA511147D0002945D1AE
:104980003C48824268D000F58060824264D03A4D53
:104990003A4E501BAA4218BFB242B0FA80F04FEA1A
:1049A00050105FD1364D23F07003A668AA4243EA47
:1049B000060334D0A5F58065AA4230D02F4DAA4217
:1049C00014BF054640F001054DBB2E482E4E8242D5
:1049D00018BFB2420CBF0120002047D006F5006688
:1049E0002A4DAA4218BFB24219D0294882423DD06E
:1049F00000F58060824239D0A16923F08003E0682D
:104A00000B4361681360D062916217E01A4823F08B
:104A10007003A568101A2B43B0FA80F0400926698C
:104A200023F44073A5693343E768666823F0800385
:104A30002B431360D762966231B928B90123002055
:104A4000536184F83D30F8BD63691363F6E780F87D
:104A50003C20FDF7A1FD82E70748101AB0FA80F06C
:104A600040099FE70846A9E7012070470020D6E7E4
:104A7000000001400004004000040140000C004020
:104A80000008004000440140004001400018004080
:104A9000001C0040034602220020196810B40124C3
:104AA00083F83D200A6822430A6083F83D405DF8A0
:104AB000044B704703680020DA6842F00102DA60B4
:104AC0001A6842F001021A60704700BF704700BFC9
:104AD000002800F08D80F8B590F83D30044603F0D2
:104AE000FF02002B77D0226802234349B2F1804FA6
:104AF00084F83D30A2EB01011368B1FA81F14FEA6D
:104B0000511147D0002945D13C48824268D000F578
:104B10008060824264D03A4D3A4E501BAA4218BF80
:104B2000B242B0FA80F04FEA50105FD1364D23F018
:104B30007003A668AA4243EA060334D0A5F580654F
:104B4000AA4230D02F4DAA4214BF054640F00105BD
:104B50004DBB2E482E4E824218BFB2420CBF0120E0
:104B6000002047D006F500662A4DAA4218BFB2427F
:104B700019D0294882423DD000F58060824239D068
:104B8000A16923F08003E0680B4361681360D06281
:104B9000916217E01A4823F07003A568101A2B439E
:104BA000B0FA80F04009266923F44073A5693343C5
:104BB000E768666823F080032B431360D762966230
:104BC00031B928B901230020536184F83D30F8BD84
:104BD00063691363F6E780F83C20FFF777FF82E70D
:104BE0000748101AB0FA80F040099FE70846A9E785
:104BF000012070470020D6E700000140000400407B
:104C000000040140000C0040000800400044014046
:104C10000040014000180040001C004003680122D1
:104C2000186A02FA01F120EA010010B418620B4C74
:104C30001A6AA34241EA020119620AD0084A934261
:104C400007D01A6800205DF8044B42F001021A6098
:104C500070475A6C42F400425A64F2E70000014087
:104C60000004014090F83C30012B3FD003685E4ABD
:104C7000F0B40224012580F83D400C689E68402C69
:104C800080F83C5002EA06029A6076D018D9702C5F
:104C900061D02ED9B4F5805F58D0B4F5005F1CD137
:104CA0008A684D68CC682A43996842EA042221F454
:104CB0007F410A439A609A6842F480429A600CE00D
:104CC000102C33D039D9202C6FD0302C05D19A68D4
:104CD00022F0700242F037029A600022012380F82D
:104CE0003C2080F83D301046F0BC70470223184647
:104CF0007047502C60D0602CEFD11C6A4D6824F0B6
:104D00001004CE681C6299691A6A21F4704122F07D
:104D1000A00241EA063142EA051299611A629A68D4
:104D200022F0700242F067029A60D6E79A6822F099
:104D3000700242F017029A60CFE7002CCDD19A683A
:104D400022F0700242F007029A60C6E79968274A8B
:104D50000A409A60C1E74C688A68CD6822439C6823
:104D6000234942EA052224F47F4422439A609A6848
:104D7000114041F077019960AFE71E6A1D6A4C68E7
:104D800026F00A0625F00105CF6834431D629A69B2
:104D900022F0F00242EA07129A611C629A6822F03D
:104DA000700242F047029A6097E79A6822F0700218
:104DB00042F027029A6090E71E6A1D6A4C6826F04E
:104DC0000A0625F00105CF6834431D629A6922F076
:104DD000F00242EA07129A611C629A6822F070029D
:104DE00042F057029A6078E78800FEFFF8FFFEFF66
:104DF00088FFFEFF704700BF704700BF704700BFCD
:104E0000704700BF03681A69910710B5044602D5C0
:104E1000DA68920765D41A69520702D5DA68500732
:104E20004CD41A69110702D5DA68120734D41A690A
:104E3000D00602D5DA68D1061ED41A69D20702D587
:104E4000DA68D0076BD41A69110602D5DA6812063F
:104E50006DD41A69D00502D5DA6811066FD41A69C3
:104E6000520602D5DA68500651D41A69910602D565
:104E7000DA68920643D410BD6FF010010822204674
:104E80001961DB69227713F4407F6CD0FFF7B4FF20
:104E9000002223682277D0E76FF008010422204621
:104EA0001961DB6922779B075AD1FFF7A3FF2046E0
:104EB000FFF7A4FF002223682277B8E76FF0040110
:104EC0000222204619619B69227713F4407F44D166
:104ED000FFF790FF2046FFF791FF0022236822771B
:104EE0009FE76FF00201012219619B690277990720
:104EF0002DD0FFF781FF0022236822778BE76FF028
:104F0000200220461A61BDE8104000F08BB96FF016
:104F1000400220461A61FFF773FF2368A5E76FF090
:104F2000010220461A61FDF753F923688BE76FF001
:104F3000800220461A6100F077F9236889E76FF054
:104F4000800220461A6100F06FF9236887E7FFF7B7
:104F500051FF2046FFF752FFCDE7FFF74DFFBCE7BB
:104F6000FFF74AFFA6E7FFF745FF2046FFF746FF9A
:104F70008EE700BFF0B5046A8F6824F001040E6864
:104F8000134A0462134D036A4468A842D0F818E03B
:104F900023F002030EEA020243EA070342EA060292
:104FA00009D005F58065A84205D049684460826152
:104FB00041630362F0BD23F00803CF684D6924F418
:104FC00040748E693B43354323F004032C43ECE7E4
:104FD0008CFFFEFF00000140F0B5046A8F6824F0EA
:104FE00010040E68144A0462144D036A4468A8420F
:104FF000D0F818E023F020030EEA020243EA071378
:1050000042EA062209D005F58065A84205D0496824
:105010004460826181630362F0BD23F08003CF6846
:105020004D6924F440648E6943EA0713354323F045
:10503000400344EA8504EAE7FF8CFFFE00000140DC
:10504000F0B5046A8F6824F480740E68144A046210
:10505000144D036A4468A842D0F81CE023F400739E
:105060000EEA020243EA072342EA060209D005F5E6
:105070008065A84205D049684460C261C16303628B
:10508000F0BD23F40063CF684D6924F440548E6969
:1050900043EA0723354323F4806344EA0514EAE72F
:1050A0008CFFFEFF00000140F0B5046A8F6824F415
:1050B00080540E68104A0462104D036A4468A84286
:1050C000D0F81CE023F400530EEA020243EA07334F
:1050D00042EA062209D005F58065A84205D0496854
:1050E0004460C26101640362F0BD24F480444D69F0
:1050F00044EA8514F3E700BFFF8CFFFE0000014087
:1051000003680422002002FA01F110B41C6A24EAA8
:1051100001041C621A6A5DF8044B114319625A6C4F
:1051200042F400425A641A6842F001021A60704761
:1051300090F83C30012B70B41FD00268114D5368B9
:10514000AA42946814D005F58065AA4210D00D6873
:105150000026896824F0800423F0700321432B4348
:1051600035465360916080F83C60284670BC7047BB
:1051700023F470034D682B43E9E70225284670BCF1
:10518000704700BF0000014090F83C30012B41D037
:10519000CB684A6823F44073F0B48C6882B00F681F
:1051A00023434E698C6A23F48063056813438A693C
:1051B00023F4006301920A693B43184F23F48053A0
:1051C000BD4243EA0203019A23F4005343EA060373
:1051D00023F4404343EA040323F4702343EA0243E5
:1051E0000AD00F4A954207D000226B6480F83C2019
:1051F000104602B0F0BC70474A6A23F47003CC69D1
:1052000043EA02530A6A23F08073234323F00073B6
:105210001343E9E702231846704700BF000001402E
:1052200000040140704700BF704700BFF8B590F818
:105230003C30012B30D00D4602230121044680F87A
:105240003D3080F83C10142A1ED8DFE802F0561DCD
:105250001D1D681D1D1D7B1D1D1D0B1D1D1D8D1D77
:105260001D1D270029460068FFF71EFF23682869D7
:10527000D96941F40061D961D96921F48061D961AA
:10528000DA6942EA0022DA6100230122184684F832
:105290003D2084F83C30F8BD0220F8BD0368AE68BC
:1052A000186A2F6820F480104C4918621A6A5868EE
:1052B00022F40012D3F854E042EA0652484E0EEAB5
:1052C0000101B34241EA072100F0818006F58066C2
:1052D000B3427CD06E6858605965DE651A62596DBC
:1052E000286941F400615965596D21F4806159655F
:1052F0005A6D42EA00225A65C6E729460068FFF760
:1053000039FE23682869996941F008019961996912
:1053100021F0040199619A6902439A61B4E7294630
:105320000068FFF759FE23682869996941F4006114
:105330009961996921F4806199619A6942EA002230
:105340009A61A1E729460068FFF77AFE2368286979
:10535000D96941F00801D961D96921F00401D96105
:10536000DA690243DA618FE70368AE68186A2F686A
:1053700020F480301B4918621A6A586822F40032FF
:10538000D3F854E042EA0642154E0EEA0101B34258
:1053900041EA070115D006F58066B34211D06E6868
:1053A000586059659E651A62596D286941F0080177
:1053B0005965596D21F0040159655A6D02435A65CA
:1053C00062E720F480306E6940EA0620E7E720F4C7
:1053D00080206E6940EA86207CE700BFFF8FFFFED9
:1053E000000001408FFFFEFF2DE9F0411E4690F8BE
:1053F000693082B0202B03D0022002B0BDE8F081DA
:10540000884691B3B2FA82F35B0973BB90F86810D7
:1054100005460129F0D001202121EB6685F86800BE
:1054200085F869100192FDF737FC019A07462C6850
:10543000A5F85020A5F85220B5F852309BB203B31E
:10544000B5F85230013B9BB2A5F85230721C25D101
:10545000E2691306FCD5AB68B3F5805F3AD098F8E3
:10546000003008F10108A362E6E70120C5E7E3691F
:105470005B060BD4E6B1FDF70FFCC01B2C6886421F
:1054800016D9711CF3D1E3695A06FCD500232022FA
:10549000184685F8683085F86920AEE7E369180694
:1054A000D9D42EB1FDF7F8FBC01B2C688642CDD8AD
:1054B000236820220021032023F4D0732360A368F3
:1054C00023F00103A36085F8692085F8681085F84A
:1054D0006A2092E72B69002BC1D138F8023BC3F355
:1054E0000803A362A8E700BFF8B590F86A40202C33
:1054F00001D00220F8BD002935D0B2FA82F4640947
:10550000002C30D190F86830012BF2D005461646B9
:105510000A462221476E4FF0010EC46633464265AB
:10552000A0F85860384685F86A10104E104985F882
:1055300068E0FE6339640F4E29683C65FE642431DF
:10554000FDF7A2FE2B6885F8684020461A6842F4F1
:1055500080721A609A6842F001029A609A6842F07A
:1055600040029A60F8BD0120F8BD00BFF155000867
:10557000295600083556000890F86830012B16D0DF
:1055800090F869300122212B80F86820036823D02D
:1055900090F86A20222A0CD0186810F0010004D17B
:1055A0001A6842F001021A6070470020704702201A
:1055B000704708221A621A6842F480721A609A6868
:1055C00042F001029A609A6842F040029A601868BC
:1055D00010F00100E4D0E8E79A6842F080029A6097
:1055E00090F86A20222AD7D1E3E700BF704700BFB6
:1055F00008B50368806B1B6813F4807311D10268CF
:105600002021A0F85A30136823F480731360936844
:1056100023F001039360936823F04003936080F8C4
:105620006A10FFF7E3FF08BD08B5806BFBF78CF944
:1056300008BD00BF08B50022836BA3F85A20A3F869
:10564000522093F86920212A1BD093F86A20222A3D
:1056500007D0DA6E184642F01002DA66FBF770F9EE
:1056600008BD1A6891684906F3D51168202021F415
:1056700090711160916821F00101916083F86A00D6
:10568000E7E71A6891680806DFD51168202021F045
:10569000C001116083F86900D7E700BF436ADA07E9
:1056A00010B406D50168846A4A6822F400322243A5
:1056B0004A609C0706D50168C46A4A6822F48032B1
:1056C00022434A60590706D50168046B4A6822F4F0
:1056D000802222434A601A0706D50168446B4A6853
:1056E00022F4004222434A60DC0606D50168846B3E
:1056F0008A6822F4805222438A60990606D501689E
:10570000C46B8A6822F4005222438A605A060AD582
:105710000168046C4A68B4F5801F22F4801242EAE2
:1057200004024A600BD01B0606D50268816C5368E0
:1057300023F400230B4353605DF8044B70474A6821
:10574000446C22F4C00222434A60ECE7002800F0D7
:10575000BE81F8B590F86930044603F0FF02002BD3
:1057600047D025682422216984F86920A3682A6823
:105770000B43616922F00102B8480B43E1692A60DA
:105780002A680B43E7681040266AA2690343B448BD
:1057900032432B6085426B6823F4405343EA07038E
:1057A0006B60AB6823F4306342EA0302AA6000F046
:1057B0009480AC4B9D4200F0A480AB4B9D4200F026
:1057C000A980AA4B9D4219D0A94B9D4227D0A94B35
:1057D0009D4200F0C880A84B9D4200F0B580A74BC9
:1057E0009D4200F05981B1F5004F00F06881012021
:1057F000F8BD80F86820FDF787F8B2E703F5F633C7
:10580000D3F8903003F0C003402B00F0A68012D9EB
:10581000802B00F00381C02B00F08A80E3E703F5C2
:10582000F433D3F8903003F44073B3F5807F00F085
:10583000948000F2E680002BD5D1B1F5004F00F046
:10584000E780FEF73DFD626800EB5203B3FBF2F325
:105850009BB2EB60636A002B3BD1236800215A683E
:1058600022F490425A609A6822F02A029A601A68DA
:1058700042F001021A60E166FDF70EFA236806465F
:105880001A68120709D42022002384F869201846D8
:1058900084F86A2084F86830F8BD794FDD6915F422
:1058A0000015F0D1FDF7F8F9801B2368B842F5D94F
:1058B0001A682021032022F4D0721A609A6822F01C
:1058C00001029A6084F8691084F8685084F86A10BC
:1058D000F8BD2046FFF7E2FEBFE76A4B6A4AD3F8FD
:1058E000903003F00303D35CB1F5004F59D1082B7E
:1058F00000F2E580DFE803F08C7495E38FE3E3E3E7
:105900009D0003F5FA33614AD3F8903003F00C039D
:10591000D35CE9E703F5F833D3F8903003F03003B4
:10592000102B1AD087D9202B78D0302B7FF45BAF87
:10593000B1F5004F7DD06268530803F50043B3FB17
:10594000F2F39BB2EB6085E703F5E033D3F89030D8
:1059500003F44053B3F5805F16D1B1F5004F5AD030
:10596000FEF77AFC6FE703F59233D3F8903003F437
:105970004063B3F5806FF0D02CD9B3F5006F4DD0F4
:10598000B3F5406FD4D02EE740F29D80B3F5005FB1
:1059900044D0B3F5405FCBD0B1F5004F00F08F801D
:1059A0001023082B3FF623AF01A252F823F000BFCB
:1059B00043580008435A0008495A0008EF570008A6
:1059C00061590008EF570008EF570008EF5700082B
:1059D00037590008002B7FF406AFB1F5004F30D1E6
:1059E000FEF77EFC62682568530803EB4003B3FBB7
:1059F000F2F39BB223F00F02C3F342031343EB60B5
:105A000028E7B3F5007F09D0B3F5407F90D0EAE6F0
:105A1000FEF756FCE6E7FEF71FFCE3E7B1F5004FA3
:105A200012D162681A4B03EB5203B3FBF2F39BB241
:105A3000E0E76268530803F58033B3FBF2F39BB2EF
:105A4000D8E7FEF74DFCFEE66268124B03EB52030B
:105A5000B3FBF2F39BB2EB60FCE600BFF369FFEF30
:105A6000001001400044004000480040004C00404D
:105A7000005000400014014000780040007C0040CD
:105A8000FEFFFF01003802403C8500084085000809
:105A90000048E8010024F40003F5DE33D3F8903029
:105AA00003F44043B3F5804F3FF457AF0BD9B3F540
:105AB000004FB3D0B3F5404F3FF43AAF6CE700234B
:105AC0000120EB60F8BD002B3FF4B7AE64E7012086
:105AD000704700BF84B030B4089D03AC012D84E84A
